{
  "_format": "hh3-artifact-1",
  "contractName": "PaymentManager",
  "sourceName": "contracts/PaymentManager.sol",
  "abi": [
    {
      "inputs": [
        {
          "internalType": "address",
          "name": "_usdc",
          "type": "address"
        }
      ],
      "stateMutability": "nonpayable",
      "type": "constructor"
    },
    {
      "anonymous": false,
      "inputs": [
        {
          "indexed": true,
          "internalType": "address",
          "name": "from",
          "type": "address"
        },
        {
          "indexed": true,
          "internalType": "address",
          "name": "to",
          "type": "address"
        },
        {
          "indexed": false,
          "internalType": "uint256",
          "name": "amount",
          "type": "uint256"
        }
      ],
      "name": "PaymentExecuted",
      "type": "event"
    },
    {
      "inputs": [
        {
          "internalType": "address",
          "name": "receiver",
          "type": "address"
        },
        {
          "internalType": "uint256",
          "name": "amount",
          "type": "uint256"
        }
      ],
      "name": "pay",
      "outputs": [],
      "stateMutability": "nonpayable",
      "type": "function"
    },
    {
      "inputs": [],
      "name": "usdc",
      "outputs": [
        {
          "internalType": "contract IERC20",
          "name": "",
          "type": "address"
        }
      ],
      "stateMutability": "view",
      "type": "function"
    }
  ],
  "bytecode": "0x60a0604052348015600e575f5ffd5b506040516102c03803806102c0833981016040819052602b91603b565b6001600160a01b03166080526066565b5f60208284031215604a575f5ffd5b81516001600160a01b0381168114605f575f5ffd5b9392505050565b60805161023d6100835f395f8181603d015260bc015261023d5ff3fe608060405234801561000f575f5ffd5b5060043610610034575f3560e01c80633e413bee14610038578063c40768761461007b575b5f5ffd5b61005f7f000000000000000000000000000000000000000000000000000000000000000081565b6040516001600160a01b03909116815260200160405180910390f35b61008e6100893660046101ac565b610090565b005b6040516323b872dd60e01b81523360048201526001600160a01b038381166024830152604482018390527f000000000000000000000000000000000000000000000000000000000000000016906323b872dd906064016020604051808303815f875af1158015610102573d5f5f3e3d5ffd5b505050506040513d601f19601f8201168201806040525081019061012691906101e1565b6101685760405162461bcd60e51b815260206004820152600f60248201526e151c985b9cd9995c8819985a5b1959608a1b604482015260640160405180910390fd5b6040518181526001600160a01b0383169033907f107f47a72001748abd3c158810f2111e5fdab22dbbfc1d9c5578889e8da5c4089060200160405180910390a35050565b5f5f604083850312156101bd575f5ffd5b82356001600160a01b03811681146101d3575f5ffd5b946020939093013593505050565b5f602082840312156101f1575f5ffd5b81518015158114610200575f5ffd5b939250505056fea264697066735822122058187c972959c95680b155d0b2a703b5cea3b0c7e9dd7d954a87c6f6c65bbbf964736f6c634300081c0033",
  "linkReferences": {},
  "deployedLinkReferences": {},
  "immutableReferences": {
    "84": [
      {
        "length": 32,
        "start": 61
      },
      {
        "length": 32,
        "start": 188
      }
    ]
  },
  "inputSourceName": "project/contracts/PaymentManager.sol",
  "buildInfoId": "solc-0_8_28-873ad7a46409e36f9a3d85f47fb668b00524044e"
}